:100000000C9437000C945F000C945F000C945F001C
:100010000C945F000C945F000C945F000C945F00E4
:100020000C945F000C945F000C9461000C945F00D2
:100030000C945F000C945F000C945F000C945F00C4
:100040000C945F000C945F000C945F000C945F00B4
:100050000C945F0004B6E704B6D304B6C704B6C375
:1000600002900703AC8103AC800290002C041124A1
:100070001FBECFE5D8E0DEBFCDBF11E0A0E6B0E007
:10008000EEE1F9E002C005900D92AA30B107D9F770
:1000900021E0AAE0B1E001C01D92A33CB207E1F764
:1000A00010E0C7E3D0E004C02197FE010E94710474
:1000B000C633D107C9F70E94A6030C948D040C9493
:1000C00000001F920F920FB60F9211242F933F93AF
:1000D0004F935F936F937F938F939F93AF93BF9350
:1000E000EF93FF938091C1018F5F8093C101809155
:1000F000A701823059F485B39091A80121E030E046
:1001000001C0220F9A95EAF7822785BB8091C10131
:100110008A3FB9F485E790E09093BC018093BB01DE
:1001200082E08093BD018093B30182EC91E00E9454
:100130002A018093B40163EB71E08FEB91E00E94A0
:10014000B500FF91EF91BF91AF919F918F917F91FA
:100150006F915F914F913F912F910F900FBE0F9034
:100160001F901895862F0C943102CF93DF93CDB753
:10017000DEB72C970FB6F894DEBF0FBECDBFFB01E4
:10018000808591859A83898342854C838B81938571
:1001900090FB80F98B8350E0CE0105960E947E048F
:1001A000CE0101960E940203982F81E0911101C0B7
:1001B00080E02C960FB6F894DEBF0FBECDBFDF9166
:1001C000CF9108950F931F93CF93DF93CDB7DEB7F1
:1001D0002C970FB6F894DEBF0FBECDBF8B010E94E7
:1001E0009D02882309F1CE0101960E94AD0289810A
:1001F0009A81F801918780874C8142878B81817039
:10020000838750E0BE016B5F7F4FC8010E947E0470
:1002100081E02C960FB6F894DEBF0FBECDBFDF9104
:10022000CF911F910F91089580E0F3CFFC0160837F
:100230000895FC0117B897B180818F71907E892B4A
:1002400087B987EC86B9369A349BFECF84B195B1D5
:1002500008950895CF93DF930F92CDB7DEB787E06F
:100260008983CE0101960E9419019C01DF9A8FE9D2
:100270009FE00197F1F700C00000DF98C9018255A7
:10028000914085309105B0F08A5B9F4F8730910592
:10029000B0F08C5B9F4F8730910598F08C5B9F4F3F
:1002A000079788F0205431098FEF2730310518F473
:1002B00085E001C081E00F90DF91CF91089582E049
:1002C000FACF83E0F8CF84E0F6CF12BE1CBE83E005
:1002D00083BF81E089BF7894089512BE8AEF8CBFF6
:1002E00083E083BF82E089BF789408958F929F92C4
:1002F000AF92BF92EF92FF920F931F93FC014701C1
:10030000580160834183228383829482A582B682CE
:1003100090B54130A1F5906290BD2130A1F580B536
:1003200080BD6830C1F1A0F56630C1F16730D1F110
:10033000A501940184E0220F331F441F551F8A95A5
:10034000D1F760E074E284EF90E00E944F048FEFF9
:10035000820F89B92150310941095109232F342FC6
:10036000452F552720BD8AB188618AB91F910F9109
:10037000FF90EF90BF90AF909F908F900895423084
:1003800059F69063C9CF223061F680B58860C8CF36
:10039000693071F6529A80B5866002C080B582607D
:1003A00080BDC6CF80B58460FBCF08955D9BFECF36
:1003B0006CB908950F931F93CF93DF938C01EB01DA
:1003C0006991662321F0C8010E94D601F9CFDF911F
:1003D000CF911F910F9108955F9BFECF8CB108952F
:1003E000CF93DF93D82FC62FC09882E00E94A1033D
:1003F0008D2F0E94A1038C2F0E94A103C09ADF9130
:10040000CF910895CF93C82FC09883E00E94A10395
:100410008C2F0E94A1038FEF0E94A103C09ACF915D
:1004200008951F93CF93DF93182FD62FC42FC09812
:1004300085E00E94A103812F0E94A1038D2F0E94BD
:10044000A1038C2F0E94A103C09ADF91CF911F912D
:100450000895C0980E94A1038FEF0E94A103C09A43
:100460000895EF92FF921F93CF93DF93C82F8830A8
:1004700038F080E0DF91CF911F91FF90EF900895C9
:10048000C09AB89AC49ABC9AC798C598C698BF9A99
:10049000BD9ABE980E949C03C09880EC0E94A10364
:1004A0008FE99FE00197F1F700C00000C09AEFE3E9
:1004B000FCE93197F1F700C00000C09882E00E948B
:1004C000A10388E20E94A103EC2FF0E0EF01CC0F22
:1004D000DD1FCE0FDF1FCE018C5A9F4F7C0113E032
:1004E000F70184910E94A1031150FFEFEF1AFF0A58
:1004F0001111F6CF83E00E94A103C09A60E08DE065
:100500000E94F001B998C19A60E08CE00E94F0016D
:1005100089E20E940202182FCB5ADF4FFE01C491DC
:1005200060E08FE00E94F0011C13A3CF8EE00E94D8
:100530000202807ED9F781E09DCF86B386958170D7
:1005400091E08927089580EA0E942902982F9475E6
:1005500081E0943509F480E00895EF92FF920F93C3
:100560001F93CF93DF93EC0180EB0E942902182F99
:10057000082F007486FD0BC084E917FD09C0802F89
:10058000DF91CF911F910F91FF90EF90089580E937
:10059000C0980E94A103CE010E946703982F91701A
:1005A000E92E80FF0FC0C09A40E0002331F061E0E7
:1005B0008CE20E94110200E0E2CF62E08CE20E9435
:1005C0001102DDCF8FEF0E94A1039A8113FB90F9F6
:1005D0009A838F70F82E8B832496EF100DC0C09AEB
:1005E00040E061E0011101C062E08CE20E94110272
:1005F000177001E0010FC3CF8FEF0E94A103899311
:10060000E394EBCFFF920F931F93CF93DF938C0173
:1006100080EA0E942902C82FC47082FF08C084FFAC
:1006200005C0C4E086FF03C0C0E024C0C2E0C0989B
:100630008C2F80640E94A103C8010E944F03F8011F
:10064000D381DF708281F82FF170FF2E80FF19C0F7
:100650008D2F80640E94A103C09AF5E0FA95F1F70E
:100660000000C098C11101C0C1E08C2F80680E94B9
:10067000A103C09A8C2FDF91CF911F910F91FF9012
:1006800008958D2F0E94A1030C5F1F4FFD1621F3CB
:10069000F80181918F010E94A103F394F7CFFC012F
:1006A0008081918123E0969587952A95E1F78FB90E
:1006B00080818295880F807E779BFECF9FB10E94BC
:1006C000A10380E00E94A10380E00C94A1031F938A
:1006D000CF93DF93EC018FEF0E94A103182F8FEFD0
:1006E0000E94A103982F8FEF93FF0AC00E94A103DD
:1006F0008FEF0E94A10381E0DF91CF911F910895B8
:100700008FB988E0189F9001112439832883779B43
:10071000FECF8FB18FEF8FB98881292F2295269533
:100720002770822B8883779BFECF8FB1892F8071B2
:1007300094FFE2CF82E0E0CF81E58DB981E08EB910
:1007400008958FB9779BFECF8FB10895CDB7DEB7EF
:100750002D970FB6F894DEBF0FBECDBF8FEF84BBD1
:1007600015BA2FEF39E698E1215030409040E1F77B
:1007700000C0000085BB1C8684E790E09A878987CB
:1007800082E08B8760E670E08AE091E00E94770467
:100790006AE071E080EA91E00E94DA016BE770E0C4
:1007A00080EA91E00E94DA016BE770E080EA91E074
:1007B0000E94DA012FEF39E688E121503040804075
:1007C000E1F700C00000CE010D960E942901CE0184
:1007D0000D960E946D016EE770E08AE091E00E9444
:1007E00077046AE071E080EA91E00E94DA016BE749
:1007F00070E080EA91E00E94DA0180EA91E00E94D4
:10080000EC018053898369EC70E08AE091E00E94FA
:1008100077046AE071E080EA91E00E94DA016BE718
:1008200070E080EA91E00E94DA0180EA91E00E94A3
:10083000EC0180538A83BE016F5F7F4F8FEB91E0A5
:100840000E94B5009FEF21EE34E0915020403040EF
:10085000E1F700C00000BFCFEF92FF920F931F930C
:1008600082EC91E00E94290166E08FEB91E00E940A
:10087000B2001092BE011092B20110E8E12E15E212
:10088000F12E00E010E021E040E068E080EA91E035
:100890000E9476011F910F91FF90EF900895A1E2C1
:1008A0001A2EAA1BBB1BFD010DC0AA1FBB1FEE1FEA
:1008B000FF1FA217B307E407F50720F0A21BB30B35
:1008C000E40BF50B661F771F881F991F1A9469F7B1
:1008D00060957095809590959B01AC01BD01CF010D
:1008E0000895EE0FFF1F0590F491E02D0994FB0190
:1008F000DC0101900D920020E1F70895FB01DC017D
:100900004150504048F001900D920020C9F701C0BD
:0E0910001D9241505040E0F70895F894FFCF3B
:10091E0043414E2050726F6A656B74204C454420E3
:10092E00436F6E74726F6C6C6572000A0D004765D2
:10093E006265206469652041647265737365206425
:10094E00657320456D7066C3A46E67657220426F35
:10095E006172647320616E2030783031203D204208
:10096E006F6172645B315D20307832203D20426FC2
:10097E006172645B325D2021004765626520616EA5
:10098E002077656C636865204C45447320616E6703
:10099E0065737465756572742077657264656E2013
:1009AE00736F6C6C656E2030203D3D204C4544319C
:0A09BE0020616E2F61757320210087
:00000001FF
